:020000040800F2
:100000000011002041020008871B00080F1400089F
:10001000851B0008E5060008F11E0008000000002E
:10002000000000000000000000000000191D000892
:100030000D07000800000000891B0008911D000842
:100040005B0200085B0200085B0200085B0200081C
:100050005B0200085B0200085B0200085B0200080C
:100060005B0200085B0200085B0200085B020008FC
:100070005B0200085B0200085B0200085B020008EC
:100080005B020008E90600085B02000800000000AF
:100090000000000000000000000000005B020008FB
:1000A0005B0200085B0200085B0200085B020008BC
:1000B0005B0200085B0200085B0200085B020008AC
:1000C0005B0200085B0200085B0200085B0200089C
:1000D0005B0200085B020008211E0008000000000F
:1000E0005B0200085B0200085B02000800000000E1
:1000F0000000000000000000000000005B0200089B
:10010000000000005B0200085B0200085B020008C0
:1001100000000000000000000000000000000000DF
:100120005B0200085B0200085B0200085B0200083B
:100130005B0200080000000000000000000000005A
:100140000000000000000000000000005B0200084A
:100150005B0200085B0200085B0200085B0200080B
:100160005B0200085B0200080000000000000000C5
:10017000000000000000000000000000000000007F
:10018000000000005B02000800000000000000000A
:100190005B0200085B02000800F002F800F041F882
:1001A0000AA090E8000C82448344AAF10107DA45D2
:1001B00001D100F036F8AFF2090EBAE80F0013F0E3
:1001C000010F18BFFB1A43F001031847C4350000A4
:1001D000E4350000103A24BF78C878C1FAD8520735
:1001E00024BF30C830C144BF04680C6070470000B1
:1001F0000023002400250026103A28BF78C1FBD830
:10020000520728BF30C148BF0B607047642900F017
:10021000F780002070471FB502F0E2F81FBD10B54F
:1002200010BD00F0CAF91146FFF7F5FF02F010F813
:1002300000F0E8F903B4FFF7F2FF03BC00F0F0F9B7
:100240000948804709480047FEE7FEE7FEE7FEE76A
:10025000FEE7FEE7FEE7FEE7FEE7FEE704480549A6
:10026000054A064B70470000111E0008990100085E
:10027000000B002000110020000D0020000D0020C8
:1002800053EA020C00F069802DE9F04B4FF00006B4
:10029000002B1FBFB3FA83F503FA05F424FA05F621
:1002A0005E4012BF1643B2FA82F502FA05F4C5F1B8
:1002B00020051EBF22FA05FC44EA0C04203556EA4C
:1002C000044C4FEA144418BF641C4FF000084FF070
:1002D0000009904271EB030C39D3002919BFB1FA20
:1002E00081F701FA07F6B0FA80F700FA07F6C7F1CE
:1002F00020071EBF20FA07FC46EA0C062037B6FB93
:10030000F4FCA7EB0507103F07F01F0BCBF120060D
:100310000CFA0BFB2CFA06F644BFB3460026202F3E
:10032000A4BF5E464FF0000B5BEA060C08BF4FF01F
:10033000010B19EB0B09ABFB027C48EB0608C01B59
:1003400006FB02CC0BFB03CC71EB0C01C1E70B46A7
:10035000024641464846BDE8F08B13B54FF0000019
:100360004FF00001AFF30080BDE81C407047000073
:100370000FB41CB5074B06AA7B446946009005984C
:1003800000F003F90020694600F012F91CBC5DF88A
:1003900014FB0000350200002DE9F0410E46044632
:1003A000002020622046E168884730B3252805D028
:1003B000D4E901219047206A401CF2E7E168204619
:1003C00000278847050018D0A5F14100192802D858
:1003D00020354FF400673246294620462760FFF754
:1003E00015FF40B1012804D0F61D26F00706083697
:1003F000D8E7361DD6E72846DAE7206ABDE8F0815F
:100400002DE9F0410646002410687529314616A5ED
:1004100010D0AFF30080002802DA404213A507E0B5
:1004200031688A0701D512A502E0490704D511A554
:10043000012401E0AFF3008000210A2206F1240725
:1004400009E0B0FBF2FCB0FBF2F302FB1C00303021
:1004500078541846491C0028F3D123462A463046D2
:10046000BDE8F04100F032B8000000002D000000AF
:100470002B000000200000004FF0000200B51346E2
:1004800094469646203922BFA0E80C50A0E80C50B4
:10049000B1F12001BFF4F7AF090728BFA0E80C5065
:1004A00048BF0CC05DF804EB890028BF40F8042B5E
:1004B00008BF704748BF20F8022B11F0804F18BFCB
:1004C00000F8012B70477047704770472DE9F047DF
:1004D0000D4699469246044600F1240801688806B4
:1004E00004D5E06921F01001216000E00120A8425C
:1004F00001DD471B00E00027A1697A1902EB090022
:10050000081AA0612078C00602D42046AFF300800C
:10051000002608E0D4E901211AF806009047206A75
:10052000401C761C20624E45F4DB2078C0060AD5BC
:100530002046AFF3008006E0D4E901213020904747
:10054000206A401C2062381EA7F10107F4DC07E096
:10055000D4E9012118F805009047206A401C206268
:10056000281EA5F10105F3DC2046AFF300802078BA
:10057000000602D50220BDE8F0870120FBE700005D
:1005800001694A1C02610878704700B58FB0CDE957
:1005900001310021059105497944CDE90310114647
:1005A0006846FFF7F9FE0FB000BD0000E5FFFFFF52
:1005B0000A6802F8010B0A607047754600F02CF8D3
:1005C000AE4605006946534620F00700854618B040
:1005D00020B5FFF743FEBDE820404FF000064FF086
:1005E00000074FF000084FF0000B21F00701AC4668
:1005F000ACE8C009ACE8C009ACE8C009ACE8C00987
:100600008D46704710B50446AFF300802046BDE824
:100610001040FFF70FBE0000004870479C0A002002
:1006200001491820ABBEFEE726000200704700001B
:10063000294800B5016841F00201016027480168BE
:1006400041F40221016025482030016841F08061B9
:100650000160001D016841F0400101601F48083041
:10066000016841F4022101601B481030016841F427
:10067000001101601A48016821F03F010160016822
:1006800041F0020101601648183001686FF30B0158
:100690000160016841F050010160001D016821F016
:1006A0003F010160016841F0030101600C48001D39
:1006B000016844F24202114301600948001F0168C9
:1006C00041F0010101600F2001F05FFA4721202075
:1006D0005DF804EB01F01EBC30380240000402401B
:1006E00004540040FEE7000006484168890208D52E
:1006F000C16841F40011C1600348016841F0400144
:1007000001607047006002400C44004070470000E8
:1007100070B514460D4601F001FB05A001F0FEFA8C
:10072000284600F033F82046BDE8704000F02EB8AF
:100730003A00000070B50C460546B0F90020B1F94A
:1007400000100EA0FFF7E4FF0DA001F0E7FAB5F9E5
:100750000220B4F902100BA0FFF7DAFF08A001F0A5
:10076000DDFAB5F90420B4F9041007A0FFF7D0FFB3
:10077000BDE8704002A001F0D1BA000058000000AE
:100780000D0A0000590000005A0000003EB50A2280
:10079000694601F06BF90024684601E0641C24B24C
:1007A000015D0029FAD104E005A001F0B7FA641C4C
:1007B00024B2072CF8DB684601F0B0FA3EBD000019
:1007C00020000000F0B5064614460D46282001F032
:1007D000DCF90746292001F0D8F947EA00203080EB
:1007E0002A2001F0D2F906462B2001F0CEF946EA84
:1007F000002028802C2001F0C8F905462D2001F0AA
:10080000C4F945EA00202080F0BD000030B50D4657
:10081000DFED0B0A01F0D4F90446284601F0D0F9C7
:1008200044EA002000B200EE100AB8EEC00A20EE42
:10083000200ABDEEC00A10EE100A00B230BD000062
:10084000295C0F3C70B50D46064614462921282028
:10085000FFF7DCFF30802B212A20FFF7D7FF28800D
:100860002D212C20FFF7D2FF208070BD1E4800B53F
:10087000016841F001010160016841F0100101606F
:100880001A49086840F4284008601948026842F094
:10089000400202600A6A174B1A430A628A6842F4ED
:1008A00028428A60816841F0800181600E491431DC
:1008B0000A6842F480520A600F490A6840F217330E
:1008C0001A430A600A6842F040020A60816941F0F6
:1008D000080181610F2001F073F90F2120205DF8DC
:1008E00004EB01F02BBB0000303802400000024056
:1008F00000100240000050550030014070B5044621
:1009000000F004F90546601C02D004480078044455
:1009100000F0FCF8401BA042FAD370BD2800002074
:100920002DE9F84FDFF8B8A1002201240AF1040BE9
:1009300003254FF00F090BF1040E00BF0B6804FAFA
:1009400002F63340B34273D10F7907F00307012F4A
:1009500001D0022F16D187684FEA420805FA08FC39
:1009600027EA0C07D1F80CC00CFA08FC4CEA070C7B
:10097000C0F808C04768B7430E79C6F30016964022
:100980003E4346600E79F643B6070DD0C768560061
:1009900005FA06FC27EA0C07D1F808C00CFA06FC99
:1009A0004CEA070CC0F80CC00E7906F00306022EC4
:1009B00010D1D60800EB8608D8F8206057074FEA18
:1009C000D76C09FA0CF7BE430F6907FA0CF73743E7
:1009D000C8F8207006684FEA420C05FA0CF7BE43CF
:1009E0000F7907F0030707FA0CF7374307604E68E3
:1009F00016F4403F6DD03B4E376847F48047376070
:100A0000366822F0030706F480460096364E07EB60
:100A1000060CDCF8086897073F0F09FA07F826EA82
:100A20000806DFF8C880404503D14FF000081EE0FB
:100A30004FE0DFF8BC80404502D14FF0010816E0DE
:100A4000DFF8B080404502D14FF002080FE0DFF838
:100A5000A880404502D14FF0030808E0DFF89C80F1
:100A6000404502D14FF0040801E04FF0070808FAB2
:100A700007F848EA0608CCF80888DAF80060574614
:100A8000D1F804C09E435FEACC3C00D51E433E60D3
:100A9000DBF800605F46D1F804C09E435FEA8C3CFF
:100AA00000D51E433E60DEF800607746D1F804C0F2
:100AB0009E435FEACC2C00D51E433E60084F0C37A6
:100AC0003E68D1F804C09E435FEA8C2C00D51E43DB
:100AD0003E60521C102AFFF431AFBDE8F88F0000D1
:100AE000003C014044380240003001400000024018
:100AF0000004024000080240000C024000100240C6
:100B00000AB1816170470904FBE700000148806871
:100B100070470000280000200248816802781144D4
:100B200081607047280000200B4810B5016841F42F
:100B300000710160016841F480610160016841F465
:100B400080710160032000F061F80F2000F006F8CA
:100B500000F024F8002010BD003C024070B50D4D9F
:100B600004464FF47A712878B1FBF0F00A4909681D
:100B7000B1FBF0F000F037FC48B9102C07D200228E
:100B80002146501E00F022F800206C6070BD01204C
:100B900070BD000028000020340000200A4808B57D
:100BA000016841F480410160006800F480400090D9
:100BB0000548001F016841F080510160006800F0A5
:100BC0008050009008BD000044380240F0B40E4B45
:100BD0001B680C46C3F30223C3F10705042D00D99B
:100BE0000425191D072901D2002300E0DB1E012680
:100BF00006FA05F1491E214099409E40761E164096
:100C00003143F0BC01F0B8B90CED00E0064900F04A
:100C1000070208684FF6FF03184040EA0220034A23
:100C200010430860704700000CED00E00000FA057A
:100C30002DE9F0470E46050065D0DFF81481D8F89D
:100C40000000F7B200F00700B04207D288F8007049
:100C5000D8F8000000F00700B04254D128683D4C9D
:100C6000810712D5400703D5206840F4E05020608A
:100C70002878000703D5206840F460402060206891
:100C8000A96820F0F000084320602878C0072DD024
:100C9000304968680839012812D0022813D0032887
:100CA00011D00968890700292DDA216821F0030194
:100CB00001432160FFF72AFF814641F2883A0EE0A6
:100CC00009688903EFE709688901ECE7FFF71EFF70
:100CD000A0EB0901514502D90320BDE8F087206847
:100CE000696800F00C00B0EB810FEFD1D8F800106C
:100CF000404601F00701B14207D90770006800F0D3
:100D00000700B04201D00120E7E72878400705D569
:100D10002068E96820F4E050084320602878000744
:100D200006D52068296920F4604040EAC1002060AF
:100D300000F018F82168084AC1F30311515CC8405B
:100D40000649086006480068FFF708FF0020C4E76E
:100D5000003C0240083802403637000834000020CA
:100D60002C000020154810B5006810F00C02144843
:100D700013D01449042A0FD0082A0ED10F4C241F77
:100D80002268236802F03F025B0207D52068C0F3A7
:100D90008810A0FB010106E0084610BD2168C1F3E0
:100DA0008811A1FB00010023FFF76AFA2168C1F353
:100DB0000141491C4900B0FBF1F010BD0838024068
:100DC0000024F40040787D012DE9F84F04006ED036
:100DD0002078DFF84C93C007A9F104054AD009F147
:100DE00004000168C1F38101012908D00068C0F343
:100DF000810002280AD1D9F80000400206D52868EF
:100E0000800337D560680028E1D033E06068B0F532
:100E1000803F10D0B0F5A02F286810D020F480308B
:100E20002860286820F4802028606068A8B1FFF757
:100E30006DFE06460DE0286840F48030F4E740F48B
:100E400080202860F7E700BFFFF760FE801B642862
:100E500073D828688003F7D50CE0FFF757FE0646E5
:100E600005E000BFFFF752FE801B6428F0D8286819
:100E70008003F7D42078DFF8AC8280074FF0000AB7
:100E80003ED5A748001D016811F00C0F08D000687E
:100E9000C0F3810002280BD1D9F80000400207D42A
:100EA0002868800716D5E068012800D112E033E1F8
:100EB000E068B8B10120C8F80000FFF727FE064639
:100EC00005E000BFFFF722FE801B0228C0D828687B
:100ED0008007F7D52868216920F0F80040EAC100B2
:100EE00028600DE0C8F800A0FFF710FE064604E0F9
:100EF000FFF70CFE801B02281FD828688007F7D454
:100F00002078000722D5864F87486169703771B114
:100F100001210160FFF7FAFD064604E0FFF7F6FD48
:100F2000801B022809D838688007F7D50EE0C0F882
:100F300000A0FFF7EBFD064605E082E0FFF7E6FDC7
:100F4000801B02287DD838688007F7D420784007B6
:100F500068D5DFF8CCB100270BF13C0BDBF80000C3
:100F6000C0000BD4DBF8001041F08051CBF800102A
:100F7000DBF80000012700F0805000906B4E3068D5
:100F8000C00510D4306840F480703060FFF7BEFDBB
:100F9000009005E0FFF7BAFD0099401A022850D8EA
:100FA0003068C005F6D55E4EA0686C3601280FD0BB
:100FB0000528306810D020F001003060306820F043
:100FC00004003060A068B8B1FFF7A0FD00900FE00A
:100FD000306840F00100F4E740F004003060F7E7CB
:100FE000FFF794FD0099411A41F28830814266D89A
:100FF00030688007F4D50EE0FFF788FD009007E029
:10100000FFF784FD0099411A41F28830814256D899
:1010100030688007F4D42FB1DBF8001021F0805144
:10102000CBF80010A069C8B33D49091D0968C1F398
:10103000810102294AD00228504607D0C8F8600032
:1010400000E03CE0FFF762FD04463BE04746C8F89D
:101050006000FFF75BFD064605E000BFFFF756FDA9
:10106000801B02282BD828688001F7D4D4E9070117
:101070000843A16A2E4A490802EB0141626A41EA2B
:101080008211084394F82C1040EA0161C9F800105D
:1010900001203866FFF73AFD044606E03EE000BF57
:1010A000FFF734FD001B022809D828688001F7D516
:1010B00034E000BFFFF72AFD001B022802D90320FD
:1010C000BDE8F88F28688001F4D427E00128F7D024
:1010D000D9F80000E26900F4800191421CD1226A33
:1010E00000F03F01914217D147F6C071626A01409A
:1010F000B1EB821F10D1A26A4FF0FF3300F44031F0
:1011000003EB5202B1EB024F06D194F82C1000F021
:101110007060B0EB016F01D00120D1E70020CFE774
:101120000438024000004742800E474200700040F1
:101130000000FFFF70B5040009D0606A002540B1CF
:1011400025616561A56294F8510040B10CE0012071
:1011500070BD6068B0F5827FF4D0E561F2E784F895
:101160005050204600F044F8022084F851002068D6
:10117000016821F040010160A088218900F482709B
:1011800001F404410843A18901F400610843217C72
:1011900001F002010843217D01F001010843218B88
:1011A00001F400710843217F01F03801084394F8ED
:1011B000201001F080010843218D01F40051084303
:1011C00021680860A069042101EA104094F8241005
:1011D00001F010010843216848602068C16921F4CA
:1011E0000061C1616565012084F85100002070BD77
:1011F000F0B587B0044614216846FFF73DF91C4955
:101200002068884232D11B480024016841F48041A3
:101210000160006800F480400590164810380168AD
:1012200041F004010160016801F0040105910168C9
:1012300041F0020101600068022500F00200059003
:101240000C20CDE9000502AA0326052782E8D0007C
:1012500069460948FFF764FB6802CDE9000502AA68
:10126000694682E8D0000548FFF75AFB07B0F0BD99
:1012700000380040403802400008024000040240AC
:101280002DE9F84F044690F8500000271D461646F9
:10129000894601280DD04FF0010B84F850B0FFF7BC
:1012A00035FC804694F85100BA46012804D0022744
:1012B00093E00220BDE8F88FB9F1000F73D0002E43
:1012C00071D0032084F85100C4F854A0C4F83090C1
:1012D000A686E686C4F838A0A4F83CA0A4F83EA0F0
:1012E000C4F844A0C4F840A0A068B0F5004F09D1EC
:1012F0002068016821F0400101602068016841F424
:101300008041016020680168490603D4016841F00A
:1013100040010160E068B0F5006F606803D030B351
:10132000012E24D041E008B1012E1CD1206B216890
:101330000088C86006E020688168890709D5216BAC
:101340000988C160206B801C2063E08E401EE0860F
:1013500009E0FFF7DBFBA0EB0800A84202D3681C02
:1013600001D031E07DB3E08E0028E4D120E0206B95
:1013700021680078087306E020688168890709D52C
:10138000216B09780173206B401C2063E08E401EA6
:10139000E0860AE0FFF7BAFBA0EB0800A84203D3FF
:1013A000681C02D010E017E06DB1E08E0028E3D198
:1013B00042462946204600F027FC08B120206065FF
:1013C000A06818B106E0FFE7032706E02068C168BF
:1013D00080680090606D00B1012784F851B084F8F6
:1013E00050A0384666E710B5401EB0F1807F01D3AB
:1013F000012010BD4FF0E02460610F21601700F064
:10140000BBFD0020A06107202061002010BDFEE789
:101410000248016821F48061016070470054004077
:101420000248016841F48061016070470054004047
:10143000044801684906FCD50248001F0068C0B294
:10144000704700001454004005490A681206FCD594
:10145000034A121F106008680006FCD570470000A0
:101460001454004007490A68D207FCD0054A121FED
:10147000106008688007FCD508680248001D0068F5
:1014800070470000145400400248016841F4807124
:1014900001607047005400400248016841F4007147
:1014A0000160704700540040024801688907FCD47D
:1014B000704700001854004003490860081D016887
:1014C0004907FCD570470000105400402DE9FE4F3D
:1014D000161ACDE900104FF000085D1A47464FF08C
:1014E000FF30002E02DD4FF0010102E003D14FF08A
:1014F00000018B4602E08346C6F10006002D02DDA6
:101500004FF0010002E003D14FF00000824602E0FC
:101510008246C5F10005AE4201DD344600E02C46AE
:10152000601C4FF00009029019E000980C9A81B2FB
:10153000019880B200F018F8B0442F44A04504DDB3
:101540000198A8EB040858440190A74203DD0098D5
:101550003F1B5044009009F101001FFA80F90299E5
:101560008945E2DDBDE8FE8FF8B516460C46054616
:10157000B0F5A07F16D2F02C14D200F08DF9601CCB
:1015800083B2681C82B22146284600F08DF9300AE9
:101590008DF800008DF801600221684600F012FA13
:1015A00000F0AEF9F8BD00002DE9F8430E464FF407
:1015B000A071DDF820801D461446074688423CD2C3
:1015C000F02E3AD23819401E884202DBC7F5A070CF
:1015D00084B27019401EF02802DBC6F1F00085B21B
:1015E00000F05AF97019401E83B23819401E82B2B9
:1015F0003146384600F058F94FEA18208DF80000BF
:1016000001228DF8018051030D48FFF779FA2E462B
:101610004FF0FF370DE0254607E03B4602226946C2
:101620000848FFF72DFE6D1EADB2002DF5D1761ED8
:10163000B6B2002EEFD100F063F9BDE8F8830000E8
:10164000000C02403802002008B500210090F02371
:101650004FF4A0720846FFF7A7FF08BD7FB500F062
:101660001BF9744D4FF40064002221462846FFF711
:1016700047FA0A20FFF742F9012221462846FFF7E0
:101680003FFA012000F08AF94FF47A70FFF736F93B
:10169000CB2000F083F968A1D1E90001CDE9000178
:1016A0000521684600F08EF9CF2000F077F964A09C
:1016B000032100680090684600F084F9E82000F0FB
:1016C0006DF960A0032100680090684600F07AF987
:1016D000EA2000F063F9002402216846009400F03B
:1016E00071F9ED2000F05AF957A00421006800902C
:1016F000684600F067F9F72000F050F953A0012187
:1017000000680090684600F05DF9C02000F046F9DE
:101710004FA0012100680090684600F053F9C120F5
:1017200000F03CF94BA0012100680090684600F0F1
:1017300049F9C52000F032F947A002210068009065
:10174000684600F03FF9C72000F028F943A00121C6
:1017500000680090684600F035F9362000F01EF968
:101760003FA0012100680090684600F02BF93A2064
:1017700000F014F93BA0012100680090684600F0D9
:1017800021F9B12000F00AF937A002210068009089
:10179000684600F017F9B62000F000F933A00321E5
:1017A00000680090684600F00DF9F22000F0F6F8AD
:1017B00001216846009400F005F9262000F0EEF8BB
:1017C0002BA0012100680090684600F0FBF8E020A3
:1017D00000F0E4F827A00FC88DE80F000F2168463D
:1017E00000F0F0F8E12000F0D9F826A10FC98DE84B
:1017F0000F000F21684600F0E5F8112000F0CEF848
:101800007820FFF77BF8292000F0C8F8362000F098
:10181000C5F820A0012100680090684600F0D2F8C9
:1018200000F06EF804B02846BDE870400122910334
:10183000FFF766B9000C0240392C003402000000AA
:1018400000C1300085007800640312812000000090
:1018500023000000100000003E2800008600000069
:101860004800000055000000001800000882270012
:10187000010000000F312B0C0E084EF1370710034A
:101880000E090000000E1403110731C148080F0CA7
:1018900031360F00E800000000224FF4805101486B
:1018A000FFF72EB9000C0240F8B507461C46154656
:1018B0000E462A2000F072F8380A8DF800008DF8E4
:1018C0000170280A8DF802008DF803500421684643
:1018D00000F078F82B2000F061F8300A8DF8000055
:1018E0008DF80160200A8DF802008DF80340042174
:1018F000684600F067F8BDE8F8402C2000F04EB8CC
:10190000012211030148FFF7FBB80000000C024060
:101910000FB42DE9FF5FC3F307264A1E324494B289
:10192000DFB2DDE913A9421E3A4492B22346FFF723
:10193000BBFF00252CE01098203810FB06501299B0
:10194000002409F0FF0B31F810804FEA1A200290B2
:101950000AF0FF0001904FEA1920009015E000BF47
:1019600008FA04F0000406D502988DF80C000198DE
:101970008DF80D0004E000988DF80C008DF80DB086
:10198000022103A800F01EF8641CA742E8D86D1CD1
:10199000AE42D0D8BDE8FF1F5DF814FB01B50022B0
:1019A0004FF400510548FFF7ABF84FF0FF33012229
:1019B00069460348FFF764FC08BD0000000C0240C4
:1019C000380200202DE9F0410C4606460122510361
:1019D0000C48FFF795F84FF400474FF0FF380DE043
:1019E000BC4201D9384600E0204685B243462A462B
:1019F00031460548FFF744FC2E44641B002CEFD110
:101A0000BDE8F081000C0240380200202DE9FE4FB5
:101A10009846DDE90DA914460E460546DDF830B0BE
:101A2000FFF73AFF08F0FF0719E07819B0F5A07F3B
:101A300009D3C8F3072081198EB200253044F0285D
:101A400010D2202A0AD0CDF800B0CDE901A9434632
:101A500031462846FFF75CFF781985B2641C22786E
:101A6000002AE2D1BDE8FE4FFFF74ABFF0B50446B9
:101A7000901E0026232801D30E701FE008460B4657
:101A8000254694FBF2F404FB1257DFF834C0002C17
:101A9000674497F8237000F8017BF1D1002D02DA3A
:101AA0002D2200F8012B00F8016905E002781C786E
:101AB00000F8014903F8012B8342F7D30846F0BD33
:101AC0004837000870B586B014216846FEF7D4FC8C
:101AD0001A480024016841F004010160016801F026
:101AE00004010591016841F002010160016801F003
:101AF00002010591016841F008010160016801F0EF
:101B000008010591016841F00101016000680C4E77
:101B100000F001004FF47845059000222946304638
:101B2000FEF7EEFF01200095CDE90104694630463D
:101B30000394FEF7F5FE06B070BD00003038024099
:101B4000000C02400E4810B50C4901604FF4827140
:101B5000416000218160C1604FF400720161C0E901
:101B60000512C1610162416281620A21C162FFF70F
:101B7000E1FA002801D072B6FEE710BD003800403F
:101B800038020020FEE7FEE7704700B50346FFF786
:101B90008BFCFFF745FCFFF777FC3220FFF762FC78
:101BA0001846FFF751FCFFF76FFC3320FFF75AFC94
:101BB000FFF72EFCFFF770FC5DF804EBFFF738BC75
:101BC00008B50F4A0346906940F40020906100F088
:101BD00099F943F080000B4BD86000F08BF9D8687E
:101BE00000F090F9FF20D86000F084F9D8688DF8F3
:101BF0000000906940F0080090619DF8000008BD69
:101C0000001002400030014038B504461248134B22
:101C10000068B0FBF3F04FF47A73584300906068AB
:101C2000B0F5827F0DD10B46009200228021204624
:101C300000F016F870B1606D40F020006065032080
:101C400038BD009830B1401E009020688068C043C5
:101C50000006F6D5002038BD3400002000366E01A5
:101C60002DE9F8431E46914688460446089DFEF736
:101C70004DFF401B351AFEF749FF0746254800680F
:101C8000C0F3CB30684338E0701C37D0FEF73EFF1E
:101C9000C01BA84203D215B1009860B32CE02068A5
:101CA000416821F0E00141606068B0F5827F0BD1AE
:101CB000A068B0F5004F02D0B0F5806F04D1206865
:101CC000016821F040010160A06AB0F5005F09D110
:101CD0002068016821F4005101602068016841F426
:101CE00000510160012084F85100002084F8500068
:101CF0000320BDE8F8830025401E0090206881681D
:101D000038EA010004D000214945BDD10020F0E7A8
:101D10000121F9E7340000207047000010B5184990
:101D20000A68012AFCD001220A600021154A4FF4FA
:101D3000FA6403E05354491CA14202DA435C002BCD
:101D4000F8D11148C0F8A4101049C0F8A810C0F884
:101D5000AC2050F8A01F41F010010160016841F073
:101D6000010101600948001F016821F04001016084
:101D700006481030016841F08001016010BD00008C
:101D80001000002090020020006002400444004047
:101D9000FEF7C2BE10B592B030216846FEF76CFB6C
:101DA00014210CA8FEF768FB17480024016841F0D5
:101DB00080510160006800F0805011901348016864
:101DC00041F4404101600068069400F440401190E5
:101DD0000220009001200390102004906846FEF736
:101DE000F3FF08B172B6FEE70F20CDE90C040E94A4
:101DF0000F9400210CA81094FEF71AFF002801D0C0
:101E000072B6FEE712B010BD4038024000700040CC
:101E10000248016841F470010160704788ED00E0FC
:101E200006480068400608D504480C30016821F0D7
:101E300040010160024900200860704700440040F2
:101E4000100000200948016841F4001101600848B1
:101E500050F8A01F074A114301604FF0E020D0F86E
:101E6000001141F40031C0F80011704730380240D1
:101E700000600240400400080948016841F0010187
:101E800001600848016841F0A0010160016A41F465
:101E9000EE410162816841F0F0018160704700000D
:101EA000303802400000024000B5FFF7E5FFFFF7C1
:101EB000C9FF0D48016841F4003101600B48016819
:101EC00040F2836211430160001D016842F2080282
:101ED000114301604FF0E020D0F8041141F04001BF
:101EE000C0F8041100BD0000403802400844004022
:101EF000FEE7000002488168C907FCD0806870478F
:101F000000300140024881688907FCD5806870472D
:101F10000030014010B50C460346FFF7C5FAFFF745
:101F2000B3FA3220FFF79EFA1846FFF78DFA2046E3
:101F3000FFF7C2FABDE81040FFF7AEBA30B50C4A61
:101F400005460C46906940F400209061FFF7DAFFE7
:101F5000084BDD60FFF7CEFFD868FFF7D3FFDC60EA
:101F6000FFF7C8FFD868906940F00800906130BD65
:101F700000100240003001400907090E002804DB70
:101F800000F1E02080F80014704700F00F0000F12D
:101F9000E02080F8141D704710B5012818D00228E1
:101FA0002CD1174C17A11848B4F90020FEF7E0F91E
:101FB0001548B4F9022013A10A30FEF7D9F91248E6
:101FC000B4F904200FA11430BDE81040FEF7D0B9D9
:101FD0000B4C0D48A41F0BA1B4F900201E38FEF7CE
:101FE000C7F90948B4F9022006A11438FEF7C0F970
:101FF0000548B4F9042003A10A38E5E710BD000044
:1020000022000020256400007E0A0020FEB54FF467
:10201000FC664FF6FF742C4DCDE9014668680090D0
:102020002AA20A214E202B68FFF7F0FCCDE90146D9
:102030006868009027A20A21D2202B68FFF7E6FCEF
:10204000CDE901466868009024A24D210A202B6842
:10205000FFF7DCFCCDE901466868009020A28921E9
:102060000A202B68FFF7D2FCCDE901466868009092
:102070001CA2C5210A202B68FFF7C8FC2822F023E8
:10208000002110460094FFF721FAB422F02300212A
:1020900010460094FFF71AFA3C234FF4A0752A4625
:1020A000194600200094FFF711FA78232A461946B2
:1020B00000200094FFF70AFAB4232A4619460020AC
:1020C0000094FFF703FAFEBD080000204779726F05
:1020D00000000000416363656C00000058000000D0
:1020E000590000005A000000FEB54FF4FC64322392
:1020F000822241212D200094FFF756FA4FF6FF76F9
:10210000324DCDE9016468680090314A4D214E207E
:102110002B68FFF77BFC322382227D212D20009447
:10212000FFF742FACDE9016468680090284A8921E6
:102130000A324E202B68FFF769FC32238222B92134
:102140002D200094FFF730FACDE901646868009013
:102150001F4AC52114324E202B68FFF757FC32234B
:1021600082224121B9200094FFF71EFACDE90164D3
:1021700068680090164A4D211E32D2202B68FFF766
:1021800045FC322382227D21B9200094FFF70CFA0E
:10219000CDE90164686800900D4A89212832D22077
:1021A0002B68FFF733FCB9213223822208460094C2
:1021B000FFF7FAF9CDE9016468680090044AC52187
:1021C0003232D2202B68FFF721FCFEBD0800002030
:1021D000600A0020FEF79ABC10B5FEF729FABDE8A8
:1021E0001040002202494FF4877000F0CDB8000083
:1021F000C122000810B5FEF739FBBDE810400022EF
:1022000002494FF4967000F0BFB80000F9220008B0
:1022100010B5FFF749FEBDE81040002202494FF417
:10222000967000F0B1B800003123000810B5FFF738
:1022300015FA4FF4FC60FFF707FABDE810400022E2
:1022400002494FF4967000F09FB80000692300081F
:10225000FEF76AFCFFF79EFDFFF734FCFFF772FC08
:10226000FFF7C8FFFFF7B8FFFFF7D2FFFFF7DEFF6A
:1022700000F002F8FCE7000070B50F4E002400BF2C
:1022800006EB0415A86890B1FFF7A4FF2968401A6F
:10229000696888420BD306EB0410084A81685160D4
:1022A000E86810600022AA60BDE870400847641C1E
:1022B000202CE5DB70BD000038000020000000206D
:1022C00010B500220A494FF4877000F05DF8094804
:1022D0004168491C416000F10E010A1D0E30891C45
:1022E000FEF770FABDE810400220FFF755BE00006F
:1022F000C12200081400002010B500220A494FF442
:10230000967000F041F809480168491C016000F12D
:1023100008010A1D0830891CFEF794FABDE8104038
:102320000120FFF739BE0000F92200081400002048
:1023300010B5002208494FF4967000F025F80749BF
:10234000881FFEF7F7F90648FFF7E8FCBDE81040E4
:1023500004A0FFF7E3BC00003123000822000020A6
:10236000600A00200D0A000010B5002205494FF454
:10237000967000F009F8FFF749FEBDE81040FFF73E
:10238000B3BE0000692300082DE9F047134D9146C4
:102390000E468046002400BF05EB0417B86808B15C
:1023A000B04216D1FFF716FF05EB04110860C7F81D
:1023B0000C90C7E90186002106E000BF05EB041080
:1023C0008268B24200D18160641C202CF6DBBDE83B
:1023D000F087641C202CDFDBF9E7000038000020C8
:1023E0004FF04070E1EE100A70470000000000005E
:1023F00000000000000000000000000000000000DD
:1024000000000000000000000000000000000000CC
:102410000000000000000000000000000000E003D9
:10242000E003E003E003E003E003E003E003C003B4
:10243000C003C001C001C001C001C0010000000014
:102440000000E003E003E0030000000000000000E3
:1024500000003C1E3C1E3C1E3C1E3C1E3C1E3C1E06
:10246000000000000000000000000000000000006C
:10247000000000000000000000000000000000005C
:10248000000000000000CE01CE03DE039E039C038B
:102490009C07FF3FFF7F3807380F780F780F780EC3
:1024A000FFFFFFFFF01EF01CE01CE03CE03DE039C8
:1024B00000000000000000000000FC03FE0FEE1F03
:1024C000E01EE01EE01EE01EE01FE00FE007F0034C
:1024D000FC01FE01FE01FE01FE01FE01FE01FE3DCA
:1024E000FC3FF00FE001E001000000000000033EAF
:1024F00007F78FE78EE79EE3BCE3B8E7F8E7F0F76E
:10250000E03FC001FF03FF07F307F30FF31EF33CA7
:10251000F338F3787FF03FE0000000000000000097
:102520000000E007F80F780F781F781F781F780FEA
:10253000F00FE00F801FC37FC3FBE7F3F7F1F7F065
:10254000FFF07FF03EF87F7CFF3FEF1F00000000B0
:10255000000000000000E003E003E003E003E0030C
:10256000C003C001000000000000000000000000E7
:10257000000000000000000000000000000000005B
:10258000000000000000000000003F007C00F0019F
:10259000E001C003C00780078007800F000F000F15
:1025A000000F000F000F000F800F80078007C0078B
:1025B000C003E001F0017C003F000F000000007E3E
:1025C000001FC007C003E001F001F000F000F800B8
:1025D000780078007800780078007800F800F00043
:1025E000F000F001E001C003C007001F007E00788A
:1025F0000000E003C003C001CE39FF3F7F3F20034E
:102600007003F807780F3C1F380600000000000038
:1026100000000000000000000000000000000000BA
:1026200000000000000000000000000000000000AA
:102630000000C001C001C001C001C001C001C00153
:10264000FFFFFFFFC001C001C001C001C001C00108
:10265000000000000000000000000000000000007A
:10266000000000000000000000000000000000006A
:10267000000000000000000000000000E003E00394
:10268000E003E003E001E001E001C001800300009D
:10269000000000000000000000000000000000003A
:1026A00000000000FE3FFE3F0000000000000000B0
:1026B000000000000000000000000000000000001A
:1026C000000000000000000000000000000000000A
:1026D00000000000000000000000000000000000FA
:1026E00000000000E003E003E003E003000000005E
:1026F0000000000000000F000F001E001E003C0044
:102700003C0078007800F000F000E001E001C00338
:10271000C00380078007000F000F001E001E003C52
:10272000003C0078007800F00000F007F80F7C1FF4
:102730003E3E1E3C1F7C1F7C0F780F780F780F7871
:102740000F780F780F781F7C1F7C1E3C3E3E7C1F4D
:10275000F80FF00700000000000000000000F0008B
:10276000F007F03FF03FF001F001F001F001F0015F
:10277000F001F001F001F001F001F001F001F001D1
:10278000F001F001FF3FFF3F0000000000000000EB
:102790000000E00FF83F7C3C3C003E003E003E0065
:1027A0003C003C007C00F800F001E003C00780071B
:1027B000000F001E003E003CFE3FFE3F00000000F8
:1027C000000000000000F00FF81F7C1C3E003E00DF
:1027D0003E003C003C00F800F00FF80F7C003E008B
:1027E0001E001E001E001E003E007C1CF81FE01F85
:1027F000000000000000000000007800F800F80071
:10280000F801F803F807F807780F781E781E783C6F
:1028100078787878FFFFFFFF7800780078007800FC
:102820007800780000000000000000000000FC1F9D
:10283000FC1FFC1F001E001E001E001E001EE01FCD
:10284000F81FFC007C003E003E001E003E003E00E3
:102850003C007C1CF81FE01F00000000000000008E
:102860000000FC01FE078E0F001F001E003E003C12
:10287000003CF83DFC3F3E7F1F7E0F3C0F3C0F3C71
:102880000F3C0F3E1F1E3E1FFC0FF0030000000018
:10289000000000000000FF3FFF3FFF3F0F001E0051
:1028A0001E003C0038007800F000F000E001E0017C
:1028B000C003C0038007800F800F000F001F001FA0
:1028C00000000000000000000000F807FC0F3E1FA1
:1028D0001E1E1E3E1E3E1E1E3C1FF80FF007F80F68
:1028E000FC1E3E3E1F3C1F7C0F7C0F7C1F3C3E3F6E
:1028F000FC1FF00700000000000000000000F007CF
:10290000F80F7C1E3E3C1E3C1F7C1F7C1F7C1F7CE6
:102910001F3C3F3EFF1FEF071F001E001E003E0032
:102920003C00F838F03FE01F00000000000000000D
:102930000000000000000000000000000000E003B4
:10294000E003E003E00300000000000000000000DE
:1029500000000000E003E003E003E00300000000EB
:102960000000000000000000000000000000000067
:102970000000E003E003E003E003000000000000CB
:102980000000000000000000E003E003E003E003BB
:10299000E001E001E001C00380030000000000004E
:1029A00000000000000003000F003F00FC00F003E7
:1029B000C00F003F00FE003FC00FF003FC003F00CF
:1029C0000F000300000000000000000000000000F5
:1029D00000000000000000000000000000000000F7
:1029E0000000FFFFFFFF000000000000FFFFFFFFEF
:1029F00000000000000000000000000000000000D7
:102A0000000000000000000000000000000000E0E6
:102A100000F8007E801FE007F8017E001F007E00A6
:102A2000F801E007801F007E00F800E000000000D1
:102A3000000000000000F01FFC3F3E381F381F3828
:102A40001E001E003C007800F000E001C003C0033F
:102A5000C007C007000000000000C007C007C00793
:102A600000000000000000000000F803FE0F1E1F21
:102A70000F3E7F3CFF78EF79C773C7F38FF38FF377
:102A80008FF39FF39FF3FF73FF7BF779003C1C1FCD
:102A9000FC0FF80300000000000000000000000030
:102AA00000000000E003E003F007F007F007780FF4
:102AB000780F7C0E3C1E3C1E3E3CFE3FFF3F1F78C5
:102AC0000F780FF007F007F0000000000000000092
:102AD0000000000000000000F83FFC3F3E3C1E3CB0
:102AE0001E3C1E3C3E3C7C3CF03FF83F7E3C1F3C85
:102AF0001F3C0F3C0F3C1F3CFE3FF83F0000000016
:102B0000000000000000000000000000FF01FF07BF
:102B1000871F003E003C007C007800780078007839
:102B20000078007C007C003E003F831FFF07FF0110
:102B30000000000000000000000000000000000095
:102B4000F07FFC7F7E781F781F780F780F780F78E2
:102B50000F780F780F780F780F781F781E787E78AF
:102B6000F87FE07F0000000000000000000000008F
:102B700000000000FF3FFF3F003E003E003E003EE1
:102B8000003E003EFE3FFE3F003E003E003E003E57
:102B9000003E003EFF3FFF3F00000000000000003D
:102BA0000000000000000000FF1FFF1F001E001EAD
:102BB000001E001E001E001EFF1FFF1F001E001E25
:102BC000001E001E001E001E001E001E0000000051
:102BD000000000000000000000000000FE03FF0FE6
:102BE000871F003E007C007C007800F800F87FF82A
:102BF0007FF80F780F7C0F7C0F3E8F1FFF0FFE03B7
:102C000000000000000000000000000000000000C4
:102C10001F7C1F7C1F7C1F7C1F7C1F7C1F7C1F7CDC
:102C2000FF7FFF7F1F7C1F7C1F7C1F7C1F7C1F7C06
:102C30001F7C1F7C0000000000000000000000005E
:102C400000000000FF3FFF3FE003E003E003E0037C
:102C5000E003E003E003E003E003E003E003E0035C
:102C6000E003E003FF3FFF3F000000000000000022
:102C70000000000000000000FC1FFC1F7C007C0026
:102C80007C007C007C007C007C007C007C007C0064
:102C90007C0078007800F838F03FC03F000000006A
:102CA0000000000000000000000000001F3C1E3C6F
:102CB0003C3C783CF03CE03DE03FC03F803FC03FC3
:102CC000E03FF03DF03C783C7C3C3E3C1F3C0F3C00
:102CD00000000000000000000000000000000000F4
:102CE000003E003E003E003E003E003E003E003EF4
:102CF000003E003E003E003E003E003E003E003EE4
:102D0000FF3FFF3F00000000000000000000000047
:102D1000000000001FF81FFC1FFC3FFE3FFE3FFEAF
:102D20007FFF77FF77FFF7F7E7F7E7F3E7F3C7F3FF
:102D300007F007F007F007F00000000000000000B7
:102D400000000000000000000F7C0F7C0F7E0F7F52
:102D50000F7F8F7F8F7FCF7FEF7BEF79FF79FF78BA
:102D6000FF787F783F783F781F781F780000000059
:102D7000000000000000000000000000F007FC1F41
:102D80003E3E1F7C0F780F780FF80FF80FF80FF802
:102D90000FF80FF80F780F781F7C3E3EFC1FF007EE
:102DA0000000000000000000000000000000000023
:102DB000FC3FFF3F1F3E0F3E0F3E0F3E0F3E1F3EAC
:102DC0003F3EFC3FF03F003E003E003E003E003EE6
:102DD000003E003E00000000000000000000000077
:102DE00000000000F007FC1F3E3E1F7C0F780F78AC
:102DF0000FF80FF80FF80FF80FF80FF80F780F789B
:102E00001F7C3E3EFC1FF8077C003F000F000300C4
:102E10000000000000000000F03FFC3F7E3C3E3C14
:102E20001E3C1E3C3E3C3C3CFC3CF03FE03FF03D49
:102E3000F83C7C3C3E3C1E3C1F3C0F3C000000002C
:102E4000000000000000000000000000FC07FE1F62
:102E50000E3E003C003C003C003EC01FF80FFE034D
:102E60007F001F000F000F001F203E3CFC3FF01FA3
:102E70000000000000000000000000000000000052
:102E8000FFFFFFFFE003E003E003E003E003E003F4
:102E9000E003E003E003E003E003E003E003E0031A
:102EA000E003E0030000000000000000000000005C
:102EB000000000000F7C0F7C0F7C0F7C0F7C0F7CD0
:102EC0000F7C0F7C0F7C0F7C0F7C0F7C0F7C1E3CDB
:102ED0001E3C3E3EFC1FF00700000000000000000A
:102EE000000000000000000007F007F007F80F786E
:102EF0000F7C1E3C1E3C1E3E3C1E3C1F781F780F64
:102F0000F80FF007F007F007E003E003000000000F
:102F100000000000000000000000000003E003F0DB
:102F200003F007F0E7F3E7F3E7F3E773F77BF77FE7
:102F3000FF7F7F7F7F7F7E7F7E3F3E3E3E3E3E3EE9
:102F40000000000000000000000000000000000081
:102F500007F80F7C1E3E3E3E3C1FF80FF007E007CF
:102F6000E003E003F007F80F7C0F7C1E3E3C1F7867
:102F70000F780FF0000000000000000000000000CB
:102F80000000000007F807780F7C1E3C1E3E3C1F27
:102F9000780FF80FF007E003E003E003E003E0033D
:102FA000E003E003E003E003000000000000000095
:102FB0000000000000000000FF7FFF7F0F001F00E7
:102FC0003E007C00F800F000E001E003C007800F45
:102FD000000F001E003E007CFF7FFF7F000000000E
:102FE000000000000000FF078007800780078007BF
:102FF0008007800780078007800780078007800799
:103000008007800780078007800780078007800788
:1030100080078007FF07FF07000000780078003C6A
:10302000003C001E001E000F000F80078007C00339
:10303000C003E001E001F000F000780078003C00FF
:103040003C001E001E000F000F0007000000F07F74
:10305000F000F000F000F000F000F000F000F000F0
:10306000F000F000F000F000F000F000F000F000E0
:10307000F000F000F000F000F000F000F07FF07FD2
:103080000000C000C001C001E003E003F007F0074A
:103090007807780F380F3C1E3C1E1E3C1E3C0F3834
:1030A0000F7807780000000000000000000000001A
:1030B0000000000000000000000000000000000010
:1030C0000000000000000000000000000000000000
:1030D00000000000000000000000000000000000F0
:1030E000FFFFFFFF000000000000F00000000000F4
:1030F00000000000000000000000000000000000D0
:1031000000000000000000000000000000000000BF
:1031100000000000000000000000000000000000AF
:1031200000000000000000000000F80FFC3F7C3CA5
:103130003E003E003E00FE07FE1F3E3E3E7C3E78C7
:103140003E7C7E7CFF3FCF1F00000000000000009F
:103150000000003C003C003C003C003C003CF83DD2
:10316000FE3F3E3F1F3E0F3C0F3C0F3C0F3C0F3CD1
:103170000F3C1F3C1E3C3E3FFC3FF03B000000006C
:10318000000000000000000000000000000000003F
:103190000000FE03FF0F871F003E003E003C007C46
:1031A000007C007C003C003E003E871FFF0FFE03BA
:1031B000000000000000000000001F001F001F00B2
:1031C0001F001F001F00FF07FF1F3F3E1F3C1F7C0B
:1031D0001F7C1F7C1F781F781F7C1F7C3F3C7F3E1D
:1031E000FF1FDF0F000000000000000000000000D3
:1031F00000000000000000000000F803FC0F3E1F6C
:103200001E3E1F3C1F7CFF7FFF7F007C007C003C3C
:10321000003E071FFF0FFE0300000000000000003B
:103220000000FF01E103C003C007C007C007FF7F24
:10323000FF7FC007C007C007C007C007C007C0079F
:10324000C007C007C007C007C007C00700000000D4
:10325000000000000000000000000000000000006E
:103260000000EF07FF1F7F3E1F3C1F7C1F7C1F7865
:103270001F781F781F7C1F7C3F3C7F3EFF1FDF0FA6
:103280001E001E001E007C38F83F003C003C003C45
:10329000003C003C003CFC3DFE3F9E3F1F3F1F3E6C
:1032A0001F3C1F3C1F3C1F3C1F3C1F3C1F3C1F3C46
:1032B0001F3C1F3C00000000000000000000F00167
:1032C000F0010000000000000000E07FE07FE0016E
:1032D000E001E001E001E001E001E001E001E001E6
:1032E000E001E001E001E00100000000000000005A
:1032F0000000F800F8000000000000000000F83FA7
:10330000F83FF800F800F800F800F800F800F800BE
:10331000F800F800F800F800F800F800F800F800ED
:10332000F000F071E07F003C003C003C003C003CC1
:10333000003C1F3C3E3C7C3CF83CF03DE03DC03F47
:10334000C03FE03FF03DF83C7C3C3E3C1F3C1F3C16
:1033500000000000000000000000F07FF001F0011C
:10336000F001F001F001F001F001F001F001F001D5
:10337000F001F001F001F001F001F001F001F001C5
:10338000F001F0010000000000000000000000005B
:10339000000000000000000000009EF7FFFFFFFF9C
:1033A000FFFFE7FBE7F9C7F1C7F1C7F1C7F1C7F1C5
:1033B000C7F1C7F1C7F1C7F100000000000000002D
:1033C0000000000000000000000000000000FC3DC4
:1033D000FE3F9E3F1F3F1F3E1F3C1F3C1F3C1F3CAC
:1033E0001F3C1F3C1F3C1F3C1F3C1F3C00000000BB
:1033F00000000000000000000000000000000000CD
:103400000000F007FC1F3E3E1F3C1F7C0F780F782A
:103410000F780F780F781F7C1F3C3E3EFC1FF00793
:10342000000000000000000000000000000000009C
:10343000000000000000F83DFE3F3E3F1F3E0F3CF5
:103440000F3C0F3C0F3C0F3C0F3C1F3C1E3E3E3FD1
:10345000FC3FF83F003C003C003C003C003C0000CE
:1034600000000000000000000000EE07FE1F7E3E8E
:103470001E3C1E7C1E781E781E781E781E781E7CD0
:103480003E7C7E3EFE1FDE0F1E001E001E001E0044
:103490001E000000000000000000000000007F1F70
:1034A000FF1FE71FC71F871F001F001F001F001FF0
:1034B000001F001F001F001F001F001F0000000052
:1034C00000000000000000000000000000000000FC
:1034D0000000FC07FE1F0E1E003E003E003FE01FE6
:1034E000FC07FE003E001E001E003E3CFC3FF01F9D
:1034F00000000000000000000000000000000000CC
:10350000800780078007FF7FFF7F80078007800795
:103510008007800780078007800780078007C00733
:10352000FF03FF0100000000000000000000000099
:10353000000000000000000000001E3C1E3C1E3C7D
:103540001E3C1E3C1E3C1E3C1E3C1E3C1E3C3E3C8B
:103550007E3CFE3EFE1FDE0F00000000000000006B
:10356000000000000000000000000000000007F064
:103570000F780F781E3C1E3C1E3E3C1E3C1E780FF2
:10358000780FF00FF007F007E003E0030000000001
:10359000000000000000000000000000000000002B
:1035A000000003F0E3F1E3F3E7F3F7F3F7F3F77F5A
:1035B000777F7F7F7F7F7F7F3E3E3E3E3E3E3E3E2B
:1035C00000000000000000000000000000000000FB
:1035D0000000000000000F7C1E3E3C3E3C1FF80F28
:1035E000F007F007E003F007F807F80F7C1E3E3EF7
:1035F0001F3C1F78000000000000000000000000D9
:103600000000000000000000000007F80F780F7CA9
:103610001E3C1E3C3C1E3C1E3C1F780FF80FF00762
:10362000F007E003E003C003C003C0038007800F7E
:10363000007F000000000000000000000000FF3FCD
:10364000FF3F1F003E007C00F800F001E003C007D0
:10365000800F001F001E003CFF7FFF7F0000000066
:10366000000000000000FE01E003C003C003C0032F
:10367000C003E001E001E001C001C003803F803FE2
:10368000C003C001E001E001E001C003C003C003CA
:10369000C003E003FE017E000000C001C001C001C4
:1036A000C001C001C001C001C001C001C001C00112
:1036B000C001C001C001C001C001C001C001C00102
:1036C000C001C001C001C001C001C0010000C03F75
:1036D000E003E001E001E001E001C001C003C0033C
:1036E000C001E001FE00FE00E001C001C003C00314
:1036F000C001E001E001E001E001E003C03F003F64
:1037000000000000000000000000000000000000B9
:103710000000000000000000073FC77FE773FFF1D3
:103720007EF000000000000000000000000000002B
:103730000000000000000000000000000000010286
:1037400003040607080900007A79787776757473A0
:103750007271706F6E6D6C6B6A69686766656463C1
:1037600062613938373635343332313031323334BF
:1037700035363738396162636465666768696A6BD4
:103780006C6D6E6F707172737475767778797A007C
:10379000B03700080000002038000000D401000805
:1037A000E837000838000020C8100000F0010008C9
:1037B0000000000000000000101A0000EA230008CA
:1037C00000000000000000000000000000000000F9
:1037D00000000000000000000100000010000000D8
:0837E000000000000024F400C9
:040000050800019955
:00000001FF
